:020000040800F2
:1000000000040020450100084D0100084F010008D0
:1000100051010008530100085501000800000000CC
:100020000000000000000000000000005701000870
:1000300059010008000000005B0100085D01000894
:100040005F0100085F0100085F0100085F01000810
:100050005F0100085F0100085F0100085F01000800
:100060005F0100085F0100085F0100085F010008F0
:100070005F0100085F0100085F0100085F010008E0
:100080005F0100085F0100085F0100085F010008D0
:100090005F0100085F0100085F0100085F010008C0
:1000A0005F0100085F0100085F0100085F010008B0
:1000B0005F0100085F0100085F0100085F010008A0
:1000C0005F0100085F0100085F0100085F01000890
:1000D0005F0100085F0100085F0100085F01000880
:1000E0005F0100085F0100085F0100085F01000870
:1000F0005F0100085F0100085F0100085F01000860
:100100005F0100085F0100085F0100085F0100084F
:100110005F0100085F0100085F0100085F0100083F
:100120005F0100085F0100085F0100085F0100082F
:10013000DFF80CD000F02AF800480047D101000891
:10014000000400200648804706480047FEE7FEE717
:10015000FEE7FEE7FEE7FEE7FEE7FEE7FEE7FEE777
:10016000B10100083101000840EA01039B0703D0F8
:1001700009E008C9121F08C0042AFAD203E011F8E6
:10018000013B00F8013B521EF9D27047064C074D67
:1001900006E0E06840F0010394E807009847103457
:1001A000AC42F6D3FFF7C8FF7C0200088C020008BF
:1001B000704702E008C8121F08C1002AFAD1704730
:1001C0007047002001E001C1121F002AFBD17047D7
:1001D00088B020221D496846FFF7C6FF1C48806989
:1001E00040F008001A4988611A48006820F00F00A2
:1001F000184908600846006840F001000860084699
:10020000006820F0F00008600846006840F0100028
:1002100008600846006820F470000860084600681E
:1002200040F48010086010E000240CE05DF8240029
:10023000C04308490C310860002500E06D1C0648E9
:100240008542FBD3641C082CF0D3EDE75C02000868
:1002500000100240000C014080841E0020000000BD
:100260000100000002000000210000000300000067
:100270002200000023000000000000008C020008A3
:0C0280000000002000040000C201000883
:0400000508000131BD
:00000001FF
