:020000040800F2
:1000000018040020450100082F03000827030008FA
:100010002B0300088D010008B9040008000000004F
:100020000000000000000000000000005503000870
:10003000910100080000000031030008410400089D
:100040005F0100085F0100085F0100085F01000810
:100050005F0100085F0100085F0100085F01000800
:100060005F0100085F0100085F0100085F010008F0
:100070005F0100085F0100085F0100085F010008E0
:100080005F0100085F0100085F0100085F010008D0
:100090005F0100085F0100085F0100085F010008C0
:1000A0005F0100085F0100085F0100085F010008B0
:1000B0005F0100085F0100085F0100085F010008A0
:1000C0005F0100085F0100085F0100085F01000890
:1000D0005F0100085F0100085F0100085F01000880
:1000E0005F0100085F0100085F0100085F01000870
:1000F0005F0100085F0100085F0100085F01000860
:100100005F0100085F0100085F0100085F0100084F
:100110005F0100085F0100085F0100085F0100083F
:100120005F0100085F0100085F0100085F0100082F
:10013000DFF80CD000F018F800480047DD04000894
:10014000180400200648804706480047FEE7FEE7FF
:10015000FEE7FEE7FEE7FEE7FEE7FEE7FEE7FEE777
:100160005904000831010008064C074D06E0E0681C
:1001700040F0010394E8070098471034AC42F6D3EE
:10018000FFF7DAFFC4050008E405000800BFFEE73A
:100190007047000030B5144800684FF47A72B0FB25
:1001A000F2F1B1F1807F00D31DE021F07F40401ECD
:1001B0004FF0E022506150170F22002807DA130792
:1001C0001D0E0A4B00F00F04241F1D5503E01307FA
:1001D0001C0E074B1C5400BF00204FF0E022906122
:1001E0000720106100BF30BD0000002018ED00E0C6
:1001F00000E400E00349086000BF024909680029E3
:10020000FBD17047140000202DE9F0410246002583
:100210000026002000230024002791F803C00CF0E2
:100220000F0591F803C00CF0100CBCF1000F03D0C7
:1002300091F802C04CEA050591F800C0BCF1000F2E
:1002400031D0146800202BE04FF0010C0CFA00F3C1
:10025000B1F800C00CEA03069E4220D183004FF0A3
:100260000F0C0CFA03F7BC4305FA03FC4CEA040438
:1002700091F803C0BCF1280F06D14FF0010C0CFA25
:1002800000FCC2F814C00AE091F803C0BCF1480FAA
:1002900005D14FF0010C0CFA00FCC2F810C0401C54
:1002A0000828D1D31460B1F800C0BCF1FF0F34DDD1
:1002B000546800202EE000F1080C4FF0010808FA05
:1002C0000CF3B1F800C00CEA03069E4221D1830072
:1002D0004FF00F0C0CFA03F7BC4305FA03FC4CEA91
:1002E000040491F803C0BCF1280F05D100F1080CFB
:1002F00008FA0CF8C2F8148091F803C0BCF1480F5A
:1003000007D100F1080C4FF0010808FA0CF8C2F808
:100310001080401C0828CED35460BDE8F0814161B4
:1003200070470161704700BFFEE700BFFEE77047FE
:100330007047000029B1064A92690243044B9A6152
:1003400004E0034A92698243014B9A6170470000BE
:1003500000100240704710B500F002F810BD000018
:100360000CB50020019000903348006840F48030C4
:100370003149086000BF3048006800F40030009048
:100380000198401C0190009818B90198B0F5A06F31
:10039000F1D12948006800F4003010B1012000902C
:1003A00001E0002000900098012843D12348006814
:1003B00040F01000214908600846006820F0030062
:1003C00008600846006840F0020008601A4840686B
:1003D000194948600846406848600846406840F44B
:1003E000806048600846406820F47C1048600846F9
:1003F000406840F4E81048600846006840F08070AB
:10040000086000BF0C48006800F000700028F9D0B8
:100410000948406820F003000749486008464068E2
:1004200040F00200486000BF0348406800F00C0044
:100430000828F9D10CBD0000001002400020024045
:100440000448006820B103480068401E0149086064
:10045000704700001400002010B51348006840F0F9
:1004600001001149086008464068104908400E49DB
:100470004860084600680E4908400B490860084675
:10048000006820F4802008600846406820F4FE00E0
:1004900048604FF41F008860FFF75DFF4FF0006079
:1004A0000449086010BD0000001002400000FFF881
:1004B000FFFFF6FE08ED00E000BFFEE702E008C81F
:1004C000121F08C1002AFAD170477047002001E0CE
:1004D00001C1121F002AFBD17047000008B501219D
:1004E0000820FFF727FF2320ADF8000010208DF82B
:1004F000030003208DF8020069463148FFF784FEAF
:1005000023212F48FFF70DFFFFF744FE57E020217E
:100510002B48FFF704FF4FF47A70FFF76BFE2021A2
:100520002748FFF7FEFE01212548FFF7F8FE4FF4AC
:100530007A70FFF75FFE01212148FFF7F2FE0221EA
:100540001F48FFF7ECFE4FF47A70FFF753FE0221CD
:100550001B48FFF7E6FE21211948FFF7E0FE4FF4A4
:100560007A70FFF747FE21211548FFF7DAFE0321D5
:100570001348FFF7D4FE4FF47A70FFF73BFE0321D8
:100580000F48FFF7CEFE22210D48FFF7C8FE4FF4BB
:100590007A70FFF72FFE22210948FFF7C2FE2321C0
:1005A0000748FFF7BCFE4FF47A70FFF723FE2321C4
:1005B0000348FFF7B6FE4FF47A70FFF71BFEA6E77D
:1005C000000C0140E40500080000002018000000B5
:1005D000BC040008FC05000818000020000400000E
:1005E000CC04000800A24A04000000000000000043
:0C05F000010203040607080900000000D7
:0400000508000131BD
:00000001FF
