:020000040800F2
:100000006804002045010008F1010008E90100082A
:10001000ED0100088D010008450300080000000004
:10002000000000000000000000000000F5010008D2
:100030009101000800000000F3010008E10200083F
:100040005F0100085F0100085F0100085F01000810
:100050005F0100085F0100085F0100085F01000800
:100060005F0100085F0100085F0100085F010008F0
:100070005F0100085F0100085F0100085F010008E0
:100080005F0100085F0100085F0100085F010008D0
:100090005F0100085F0100085F0100085F010008C0
:1000A0005F0100085F0100085F0100085F010008B0
:1000B0005F0100085F0100085F0100085F010008A0
:1000C0005F0100085F0100085F0100085F01000890
:1000D0005F0100085F0100085F0100085F01000880
:1000E0005F0100085F0100085F0100085F01000870
:1000F0005F0100085F0100085F0100085F01000860
:100100005F0100085F0100085F0100085F0100084F
:100110005F0100085F0100085F0100085F0100083F
:100120005F0100085F0100085F0100085F0100082F
:10013000DFF80CD000F018F8004800476903000809
:10014000680400200648804706480047FEE7FEE7AF
:10015000FEE7FEE7FEE7FEE7FEE7FEE7FEE7FEE777
:10016000E502000831010008064C074D06E0E06892
:1001700040F0010394E8070098471034AC42F6D3EE
:10018000FFF7DAFF000400082004000800BFFEE7C4
:10019000704700001248806940F0080010498861EB
:1001A0001048006820F00F000E49086008460068FB
:1001B00040F0010008600846006820F0F000086088
:1001C0000846006840F0100008600846006820F407
:1001D000700008600846006840F4801008607047AE
:1001E00000100240000C014000BFFEE700BFFEE728
:1001F00070477047704710B500F002F810BD00005E
:100200000CB50020019000903348006840F4803025
:100210003149086000BF3048006800F400300090A9
:100220000198401C0190009818B90198B0F5A06F92
:10023000F1D12948006800F4003010B1012000908D
:1002400001E0002000900098012843D12348006875
:1002500040F01000214908600846006820F00300C3
:1002600008600846006840F0020008601A484068CC
:10027000194948600846406848600846406840F4AC
:10028000806048600846406820F47C10486008465A
:10029000406840F4E81048600846006840F080700C
:1002A000086000BF0C48006800F000700028F9D01A
:1002B0000948406820F00300074948600846406844
:1002C00040F00200486000BF0348406800F00C00A6
:1002D0000828F9D10CBD00000010024000200240A7
:1002E0007047000010B51348006840F00100114944
:1002F000086008464068104908400E4948600846B2
:1003000000680E4908400B4908600846006820F460
:10031000802008600846406820F4FE0048604FF4E2
:100320001F008860FFF767FF4FF000600449086016
:1003300010BD0000001002400000FFF8FFFFF6FEB5
:1003400008ED00E000BFFEE702E008C8121F08C188
:10035000002AFAD170477047002001E001C1121F46
:10036000002AFBD17047000000201F490860FFF7FA
:1003700011FF37E01C48006800EB40001B4951F8B2
:1003800020001B4908601848006800EB400017492E
:1003900001EB800040681749C1F8840112480068E9
:1003A00000EB4000114901EB800080681149C1F861
:1003B00094010D480068401C0B490860084600681D
:1003C000082801D30020086000200B49086004E0E1
:1003D00009480068401C0849086007480068074948
:1003E0008842F5D3C6E7000060000020000000202E
:1003F000808121420080214264000020404B4C005B
:1004000020040008000000206800000048030008E5
:100410008804000868000020000400005803000859
:1004200001000000010000000000000000000000CA
:1004300001000000010000000100000000000000B9
:1004400001000000000000000100000000000000AA
:10045000000000000000000001000000010000009A
:10046000000000000000000000000000000000008C
:100470000000000001000000010000000100000079
:08048000000000000000000074
:0400000508000131BD
:00000001FF
