:020000040800F2
:100000000004002049010008150500080D0500083E
:1000100011050008910100085907000800000000C0
:1000200000000000000000000000000009060008B9
:100030009501000800000000E5050008F50600082D
:100040006301000863010008630100086301000800
:1000500063010008630100089901000863010008BA
:1000600063010008630100086301000863010008E0
:1000700063010008630100086301000863010008D0
:1000800063010008630100086301000863010008C0
:1000900063010008630100086301000863010008B0
:1000A00063010008630100086301000863010008A0
:1000B0006301000863010008630100086301000890
:1000C0006301000863010008630100086301000880
:1000D0006301000863010008630100086301000870
:1000E000CD010008630100086301000863010008F6
:1000F0006301000863010008630100086301000850
:10010000630100086301000863010008630100083F
:10011000630100086301000863010008630100082F
:10012000630100086301000863010008630100081F
:10013000DFF810D000F01AF8004800477B070008ED
:10014000AFF30080000400200648804706480047BF
:10015000FEE7FEE7FEE7FEE7FEE7FEE7FEE7FEE777
:10016000FEE7FEE7F906000831010008064C074DDE
:1001700006E0E06840F0010394E807009847103477
:10018000AC42F6D3FFF7D8FF94070008A407000895
:1001900000BFFEE77047000010B5012000F038F8FE
:1001A00080B10121084800F0A4F920B101210648DE
:1001B00000F0A8F903E00121034800F0A5F90120AF
:1001C00000F020F810BD0000000C014010B54FF405
:1001D000005000F01DF888B12021094800F089F98D
:1001E00020B12021064800F08DF903E020210448C9
:1001F00000F08AF94FF4005000F004F810BD000040
:10020000000C0140014908607047000014040140DF
:10021000014600200022074B1B6803EA0102054B40
:1002200014331B680B4013B10AB1012000E0002019
:100230007047000000040140002123498279002A10
:100240003AD00A46126803689A430B461A600A1DA0
:10025000126803689A430B1D1A60027911440A68F8
:1002600003681A430A60184A0832126803689A43FE
:10027000154B08331A601A1D126803689A43124B13
:100280000C331A604279102A0ED11A1F12680368C3
:100290001A430D4B08331A601A1D126803681A437B
:1002A000094B0C331A600DE00749427911440A6882
:1002B00003681A430A6005E0027911440A6803687A
:1002C0009A430A6070470000000401401CB50021F9
:1002D000084600F063F80120009000208DF804002B
:1002E0000C208DF8050001208DF806006846FFF708
:1002F000A3FF0D21022000F051F84FF400500090B0
:1003000000208DF804000C208DF8050001208DF8E8
:1003100006006846FFF790FF1CBD000008B50121EC
:10032000052000F061F90120ADF8000004208DF8EF
:1003300003006946014800F051F808BD000801407B
:1003400008B50121082000F04FF92120ADF8000088
:1003500003208DF8020010208DF803006946044840
:1003600000F03CF82121024800F0CEF808BD000062
:10037000000C014008B50121112000F035F94FF4BF
:100380000050ADF8000004208DF8030069460248D3
:1003900000F024F808BD00000010014030B5002234
:1003A0008B071C0F0F2303FA04F20B4B8C1053F82E
:1003B00024309343084C8D1044F8253023468C108C
:1003C00053F824308C07240F00FA04F42343024C22
:1003D0008D1044F8253030BD080001402DE9F04172
:1003E000024600250026002000230024002791F863
:1003F00003C00CF00F0591F803C00CF0100CBCF119
:10040000000F03D091F802C04CEA050591F800C036
:10041000BCF1000F31D0146800202BE04FF0010C2C
:100420000CFA00F3B1F800C00CEA03069E4220D19A
:1004300083004FF00F0C0CFA03F7BC4305FA03FCE2
:100440004CEA040491F803C0BCF1280F06D14FF028
:10045000010C0CFA00FCC2F814C00AE091F803C0C9
:10046000BCF1480F05D14FF0010C0CFA00FCC2F8AA
:1004700010C0401C0828D1D31460B1F800C0BCF1F2
:10048000FF0F34DD546800202EE000F1080C4FF01F
:10049000010808FA0CF3B1F800C00CEA03069E420A
:1004A00021D183004FF00F0C0CFA03F7BC4305FA7F
:1004B00003FC4CEA040491F803C0BCF1280F05D1F9
:1004C00000F1080C08FA0CF8C2F8148091F803C087
:1004D000BCF1480F07D100F1080C4FF0010808FAF1
:1004E0000CF8C2F81080401C0828CED35460BDE838
:1004F000F08102460020D3680B400BB1012000E0E0
:1005000000207047416170470161704700BFFEE7FE
:1005100000BFFEE77047000070B5002100230F22E6
:10052000C47804B3154C246804F4E064C4F5E064B2
:10053000210AC1F10403CA40447804FA03F1847823
:100540001440214309010E4C0678A155047804F0AB
:100550001F050124AC4005786D11AD0005F1E025C3
:10056000C5F8004109E0047804F01F050124AC40FF
:10057000044D0678761145F8264070BD0CED00E07C
:1005800000E400E080E100E008B54FF4A06000F076
:100590001FF806208DF8000000208DF801000120D2
:1005A0008DF802008DF803006846FFF7B5FF28209C
:1005B0008DF8000000208DF8010002208DF8020067
:1005C00001208DF803006846FFF7A6FF08BD000074
:1005D00002490143024A1160704700000000FA0519
:1005E0000CED00E07047000029B1064A9269024311
:1005F000044B9A6104E0034A92698243014B9A6179
:100600007047000000100240704710B500F002F87B
:1006100010BD00000CB50020019000903348006828
:1006200040F480303149086000BF3048006800F471
:10063000003000900198401C0190009818B9019872
:10064000B0F5A06FF1D12948006800F4003010B176
:100650000120009001E0002000900098012843D183
:100660002348006840F010002149086008460068EF
:1006700020F0030008600846006840F002000860AF
:100680001A4840681949486008464068486008466A
:10069000406840F4806048600846406820F47C1060
:1006A00048600846406840F4E81048600846006822
:1006B00040F08070086000BF0C48006800F00070D7
:1006C0000028F9D00948406820F003000749486035
:1006D0000846406840F00200486000BF0348406898
:1006E00000F00C000828F9D10CBD000000100240F9
:1006F000002002407047000010B51348006840F029
:1007000001001149086008464068104908400E4938
:100710004860084600680E4908400B4908600846D2
:10072000006820F4802008600846406820F4FE003D
:1007300048604FF41F008860FFF767FF4FF00060CC
:100740000449086010BD0000001002400000FFF8DE
:10075000FFFFF6FE08ED00E000BFFEE702E008C87C
:10076000121F08C1002AFAD170477047002001E02B
:1007700001C1121F002AFBD17047FFF7CFFDFFF721
:10078000DFFDFFF7F7FDFFF7FFFEFFF79FFD00BF5F
:10079000FEE70000A407000800000020000400009D
:0407A0006C070008DA
:0400000508000131BD
:00000001FF
